{
	"contracts/Errors.sol": {
		"Errors": {
			"abi": [
				{
					"inputs": [
						{
							"internalType": "uint256",
							"name": "x",
							"type": "uint256"
						},
						{
							"internalType": "uint256",
							"name": "y",
							"type": "uint256"
						}
					],
					"name": "add",
					"outputs": [
						{
							"internalType": "uint256",
							"name": "",
							"type": "uint256"
						}
					],
					"stateMutability": "pure",
					"type": "function"
				},
				{
					"inputs": [
						{
							"internalType": "uint256",
							"name": "x",
							"type": "uint256"
						},
						{
							"internalType": "uint256",
							"name": "y",
							"type": "uint256"
						}
					],
					"name": "divide",
					"outputs": [
						{
							"internalType": "uint256",
							"name": "",
							"type": "uint256"
						}
					],
					"stateMutability": "pure",
					"type": "function"
				},
				{
					"inputs": [],
					"name": "get",
					"outputs": [
						{
							"internalType": "uint256",
							"name": "",
							"type": "uint256"
						}
					],
					"stateMutability": "view",
					"type": "function"
				},
				{
					"inputs": [
						{
							"internalType": "uint256",
							"name": "x",
							"type": "uint256"
						}
					],
					"name": "set",
					"outputs": [],
					"stateMutability": "nonpayable",
					"type": "function"
				}
			],
			"devdoc": {
				"kind": "dev",
				"methods": {},
				"version": 1
			},
			"evm": {
				"assembly": "    /* \"contracts/Errors.sol\":62:776  contract Errors {... */\n  mstore(0x40, 0x80)\n  callvalue\n  dup1\n  iszero\n  tag_1\n  jumpi\n  0x00\n  dup1\n  revert\ntag_1:\n  pop\n  dataSize(sub_0)\n  dup1\n  dataOffset(sub_0)\n  0x00\n  codecopy\n  0x00\n  return\nstop\n\nsub_0: assembly {\n        /* \"contracts/Errors.sol\":62:776  contract Errors {... */\n      mstore(0x40, 0x80)\n      callvalue\n      dup1\n      iszero\n      tag_1\n      jumpi\n      0x00\n      dup1\n      revert\n    tag_1:\n      pop\n      jumpi(tag_2, lt(calldatasize, 0x04))\n      shr(0xe0, calldataload(0x00))\n      dup1\n      0x60fe47b1\n      eq\n      tag_3\n      jumpi\n      dup1\n      0x6d4ce63c\n      eq\n      tag_4\n      jumpi\n      dup1\n      0x771602f7\n      eq\n      tag_5\n      jumpi\n      dup1\n      0xf88e9fbf\n      eq\n      tag_6\n      jumpi\n    tag_2:\n      0x00\n      dup1\n      revert\n        /* \"contracts/Errors.sol\":109:255  function set(uint x) public  {... */\n    tag_3:\n      tag_7\n      0x04\n      dup1\n      calldatasize\n      sub\n      dup2\n      add\n      swap1\n      tag_8\n      swap2\n      swap1\n      tag_9\n      jump\t// in\n    tag_8:\n      tag_10\n      jump\t// in\n    tag_7:\n      stop\n        /* \"contracts/Errors.sol\":263:341  function get() public view returns (uint) {... */\n    tag_4:\n      tag_11\n      tag_12\n      jump\t// in\n    tag_11:\n      mload(0x40)\n      tag_13\n      swap2\n      swap1\n      tag_14\n      jump\t// in\n    tag_13:\n      mload(0x40)\n      dup1\n      swap2\n      sub\n      swap1\n      return\n        /* \"contracts/Errors.sol\":349:601  function add(uint x, uint y) public pure returns (uint) {... */\n    tag_5:\n      tag_15\n      0x04\n      dup1\n      calldatasize\n      sub\n      dup2\n      add\n      swap1\n      tag_16\n      swap2\n      swap1\n      tag_17\n      jump\t// in\n    tag_16:\n      tag_18\n      jump\t// in\n    tag_15:\n      mload(0x40)\n      tag_19\n      swap2\n      swap1\n      tag_14\n      jump\t// in\n    tag_19:\n      mload(0x40)\n      dup1\n      swap2\n      sub\n      swap1\n      return\n        /* \"contracts/Errors.sol\":609:773  function divide(uint x, uint y) public pure returns (uint) {... */\n    tag_6:\n      tag_20\n      0x04\n      dup1\n      calldatasize\n      sub\n      dup2\n      add\n      swap1\n      tag_21\n      swap2\n      swap1\n      tag_17\n      jump\t// in\n    tag_21:\n      tag_22\n      jump\t// in\n    tag_20:\n      mload(0x40)\n      tag_23\n      swap2\n      swap1\n      tag_14\n      jump\t// in\n    tag_23:\n      mload(0x40)\n      dup1\n      swap2\n      sub\n      swap1\n      return\n        /* \"contracts/Errors.sol\":109:255  function set(uint x) public  {... */\n    tag_10:\n        /* \"contracts/Errors.sol\":162:163  0 */\n      0x00\n        /* \"contracts/Errors.sol\":157:158  x */\n      dup2\n        /* \"contracts/Errors.sol\":157:163  x != 0 */\n      sub\n        /* \"contracts/Errors.sol\":149:186  require(x != 0, \"x cannot be  zero!\") */\n      tag_25\n      jumpi\n      mload(0x40)\n      0x08c379a000000000000000000000000000000000000000000000000000000000\n      dup2\n      mstore\n      0x04\n      add\n      tag_26\n      swap1\n      tag_27\n      jump\t// in\n    tag_26:\n      mload(0x40)\n      dup1\n      swap2\n      sub\n      swap1\n      revert\n    tag_25:\n        /* \"contracts/Errors.sol\":246:247  x */\n      dup1\n        /* \"contracts/Errors.sol\":233:243  storedData */\n      0x00\n        /* \"contracts/Errors.sol\":233:247  storedData = x */\n      dup2\n      swap1\n      sstore\n      pop\n        /* \"contracts/Errors.sol\":109:255  function set(uint x) public  {... */\n      pop\n      jump\t// out\n        /* \"contracts/Errors.sol\":263:341  function get() public view returns (uint) {... */\n    tag_12:\n        /* \"contracts/Errors.sol\":299:303  uint */\n      0x00\n        /* \"contracts/Errors.sol\":323:333  storedData */\n      dup1\n      sload\n        /* \"contracts/Errors.sol\":316:333  return storedData */\n      swap1\n      pop\n        /* \"contracts/Errors.sol\":263:341  function get() public view returns (uint) {... */\n      swap1\n      jump\t// out\n        /* \"contracts/Errors.sol\":349:601  function add(uint x, uint y) public pure returns (uint) {... */\n    tag_18:\n        /* \"contracts/Errors.sol\":399:403  uint */\n      0x00\n        /* \"contracts/Errors.sol\":416:427  uint result */\n      dup1\n        /* \"contracts/Errors.sol\":434:435  y */\n      dup3\n        /* \"contracts/Errors.sol\":430:431  x */\n      dup5\n        /* \"contracts/Errors.sol\":430:435  x + y */\n      tag_30\n      swap2\n      swap1\n      tag_31\n      jump\t// in\n    tag_30:\n        /* \"contracts/Errors.sol\":416:435  uint result = x + y */\n      swap1\n      pop\n        /* \"contracts/Errors.sol\":459:460  x */\n      dup4\n        /* \"contracts/Errors.sol\":450:456  result */\n      dup2\n        /* \"contracts/Errors.sol\":450:460  result < x */\n      lt\n        /* \"contracts/Errors.sol\":450:474  result < x || result < y */\n      dup1\n      tag_32\n      jumpi\n      pop\n        /* \"contracts/Errors.sol\":473:474  y */\n      dup3\n        /* \"contracts/Errors.sol\":464:470  result */\n      dup2\n        /* \"contracts/Errors.sol\":464:474  result < y */\n      lt\n        /* \"contracts/Errors.sol\":450:474  result < x || result < y */\n    tag_32:\n        /* \"contracts/Errors.sol\":446:570  if (result < x || result < y)  {... */\n      iszero\n      tag_33\n      jumpi\n        /* \"contracts/Errors.sol\":492:519  revert(\"result overflowed\") */\n      mload(0x40)\n      0x08c379a000000000000000000000000000000000000000000000000000000000\n      dup2\n      mstore\n      0x04\n      add\n      tag_34\n      swap1\n      tag_35\n      jump\t// in\n    tag_34:\n      mload(0x40)\n      dup1\n      swap2\n      sub\n      swap1\n      revert\n        /* \"contracts/Errors.sol\":446:570  if (result < x || result < y)  {... */\n    tag_33:\n        /* \"contracts/Errors.sol\":587:593  result */\n      dup1\n        /* \"contracts/Errors.sol\":580:593  return result */\n      swap2\n      pop\n      pop\n        /* \"contracts/Errors.sol\":349:601  function add(uint x, uint y) public pure returns (uint) {... */\n      swap3\n      swap2\n      pop\n      pop\n      jump\t// out\n        /* \"contracts/Errors.sol\":609:773  function divide(uint x, uint y) public pure returns (uint) {... */\n    tag_22:\n        /* \"contracts/Errors.sol\":662:666  uint */\n      0x00\n        /* \"contracts/Errors.sol\":691:692  0 */\n      dup1\n        /* \"contracts/Errors.sol\":686:687  y */\n      dup3\n        /* \"contracts/Errors.sol\":686:692  y != 0 */\n      sub\n        /* \"contracts/Errors.sol\":679:693  assert(y != 0) */\n      tag_37\n      jumpi\n      tag_38\n      tag_39\n      jump\t// in\n    tag_38:\n    tag_37:\n        /* \"contracts/Errors.sol\":764:765  y */\n      dup2\n        /* \"contracts/Errors.sol\":760:761  x */\n      dup4\n        /* \"contracts/Errors.sol\":760:765  x / y */\n      tag_40\n      swap2\n      swap1\n      tag_41\n      jump\t// in\n    tag_40:\n        /* \"contracts/Errors.sol\":753:765  return x / y */\n      swap1\n      pop\n        /* \"contracts/Errors.sol\":609:773  function divide(uint x, uint y) public pure returns (uint) {... */\n      swap3\n      swap2\n      pop\n      pop\n      jump\t// out\n        /* \"#utility.yul\":88:205   */\n    tag_43:\n        /* \"#utility.yul\":197:198   */\n      0x00\n        /* \"#utility.yul\":194:195   */\n      dup1\n        /* \"#utility.yul\":187:199   */\n      revert\n        /* \"#utility.yul\":334:411   */\n    tag_45:\n        /* \"#utility.yul\":371:378   */\n      0x00\n        /* \"#utility.yul\":400:405   */\n      dup2\n        /* \"#utility.yul\":389:405   */\n      swap1\n      pop\n        /* \"#utility.yul\":334:411   */\n      swap2\n      swap1\n      pop\n      jump\t// out\n        /* \"#utility.yul\":417:539   */\n    tag_46:\n        /* \"#utility.yul\":490:514   */\n      tag_62\n        /* \"#utility.yul\":508:513   */\n      dup2\n        /* \"#utility.yul\":490:514   */\n      tag_45\n      jump\t// in\n    tag_62:\n        /* \"#utility.yul\":483:488   */\n      dup2\n        /* \"#utility.yul\":480:515   */\n      eq\n        /* \"#utility.yul\":470:533   */\n      tag_63\n      jumpi\n        /* \"#utility.yul\":529:530   */\n      0x00\n        /* \"#utility.yul\":526:527   */\n      dup1\n        /* \"#utility.yul\":519:531   */\n      revert\n        /* \"#utility.yul\":470:533   */\n    tag_63:\n        /* \"#utility.yul\":417:539   */\n      pop\n      jump\t// out\n        /* \"#utility.yul\":545:684   */\n    tag_47:\n        /* \"#utility.yul\":591:596   */\n      0x00\n        /* \"#utility.yul\":629:635   */\n      dup2\n        /* \"#utility.yul\":616:636   */\n      calldataload\n        /* \"#utility.yul\":607:636   */\n      swap1\n      pop\n        /* \"#utility.yul\":645:678   */\n      tag_65\n        /* \"#utility.yul\":672:677   */\n      dup2\n        /* \"#utility.yul\":645:678   */\n      tag_46\n      jump\t// in\n    tag_65:\n        /* \"#utility.yul\":545:684   */\n      swap3\n      swap2\n      pop\n      pop\n      jump\t// out\n        /* \"#utility.yul\":690:1019   */\n    tag_9:\n        /* \"#utility.yul\":749:755   */\n      0x00\n        /* \"#utility.yul\":798:800   */\n      0x20\n        /* \"#utility.yul\":786:795   */\n      dup3\n        /* \"#utility.yul\":777:784   */\n      dup5\n        /* \"#utility.yul\":773:796   */\n      sub\n        /* \"#utility.yul\":769:801   */\n      slt\n        /* \"#utility.yul\":766:885   */\n      iszero\n      tag_67\n      jumpi\n        /* \"#utility.yul\":804:883   */\n      tag_68\n      tag_43\n      jump\t// in\n    tag_68:\n        /* \"#utility.yul\":766:885   */\n    tag_67:\n        /* \"#utility.yul\":924:925   */\n      0x00\n        /* \"#utility.yul\":949:1002   */\n      tag_69\n        /* \"#utility.yul\":994:1001   */\n      dup5\n        /* \"#utility.yul\":985:991   */\n      dup3\n        /* \"#utility.yul\":974:983   */\n      dup6\n        /* \"#utility.yul\":970:992   */\n      add\n        /* \"#utility.yul\":949:1002   */\n      tag_47\n      jump\t// in\n    tag_69:\n        /* \"#utility.yul\":939:1002   */\n      swap2\n      pop\n        /* \"#utility.yul\":895:1012   */\n      pop\n        /* \"#utility.yul\":690:1019   */\n      swap3\n      swap2\n      pop\n      pop\n      jump\t// out\n        /* \"#utility.yul\":1025:1143   */\n    tag_48:\n        /* \"#utility.yul\":1112:1136   */\n      tag_71\n        /* \"#utility.yul\":1130:1135   */\n      dup2\n        /* \"#utility.yul\":1112:1136   */\n      tag_45\n      jump\t// in\n    tag_71:\n        /* \"#utility.yul\":1107:1110   */\n      dup3\n        /* \"#utility.yul\":1100:1137   */\n      mstore\n        /* \"#utility.yul\":1025:1143   */\n      pop\n      pop\n      jump\t// out\n        /* \"#utility.yul\":1149:1371   */\n    tag_14:\n        /* \"#utility.yul\":1242:1246   */\n      0x00\n        /* \"#utility.yul\":1280:1282   */\n      0x20\n        /* \"#utility.yul\":1269:1278   */\n      dup3\n        /* \"#utility.yul\":1265:1283   */\n      add\n        /* \"#utility.yul\":1257:1283   */\n      swap1\n      pop\n        /* \"#utility.yul\":1293:1364   */\n      tag_73\n        /* \"#utility.yul\":1361:1362   */\n      0x00\n        /* \"#utility.yul\":1350:1359   */\n      dup4\n        /* \"#utility.yul\":1346:1363   */\n      add\n        /* \"#utility.yul\":1337:1343   */\n      dup5\n        /* \"#utility.yul\":1293:1364   */\n      tag_48\n      jump\t// in\n    tag_73:\n        /* \"#utility.yul\":1149:1371   */\n      swap3\n      swap2\n      pop\n      pop\n      jump\t// out\n        /* \"#utility.yul\":1377:1851   */\n    tag_17:\n        /* \"#utility.yul\":1445:1451   */\n      0x00\n        /* \"#utility.yul\":1453:1459   */\n      dup1\n        /* \"#utility.yul\":1502:1504   */\n      0x40\n        /* \"#utility.yul\":1490:1499   */\n      dup4\n        /* \"#utility.yul\":1481:1488   */\n      dup6\n        /* \"#utility.yul\":1477:1500   */\n      sub\n        /* \"#utility.yul\":1473:1505   */\n      slt\n        /* \"#utility.yul\":1470:1589   */\n      iszero\n      tag_75\n      jumpi\n        /* \"#utility.yul\":1508:1587   */\n      tag_76\n      tag_43\n      jump\t// in\n    tag_76:\n        /* \"#utility.yul\":1470:1589   */\n    tag_75:\n        /* \"#utility.yul\":1628:1629   */\n      0x00\n        /* \"#utility.yul\":1653:1706   */\n      tag_77\n        /* \"#utility.yul\":1698:1705   */\n      dup6\n        /* \"#utility.yul\":1689:1695   */\n      dup3\n        /* \"#utility.yul\":1678:1687   */\n      dup7\n        /* \"#utility.yul\":1674:1696   */\n      add\n        /* \"#utility.yul\":1653:1706   */\n      tag_47\n      jump\t// in\n    tag_77:\n        /* \"#utility.yul\":1643:1706   */\n      swap3\n      pop\n        /* \"#utility.yul\":1599:1716   */\n      pop\n        /* \"#utility.yul\":1755:1757   */\n      0x20\n        /* \"#utility.yul\":1781:1834   */\n      tag_78\n        /* \"#utility.yul\":1826:1833   */\n      dup6\n        /* \"#utility.yul\":1817:1823   */\n      dup3\n        /* \"#utility.yul\":1806:1815   */\n      dup7\n        /* \"#utility.yul\":1802:1824   */\n      add\n        /* \"#utility.yul\":1781:1834   */\n      tag_47\n      jump\t// in\n    tag_78:\n        /* \"#utility.yul\":1771:1834   */\n      swap2\n      pop\n        /* \"#utility.yul\":1726:1844   */\n      pop\n        /* \"#utility.yul\":1377:1851   */\n      swap3\n      pop\n      swap3\n      swap1\n      pop\n      jump\t// out\n        /* \"#utility.yul\":1857:2026   */\n    tag_49:\n        /* \"#utility.yul\":1941:1952   */\n      0x00\n        /* \"#utility.yul\":1975:1981   */\n      dup3\n        /* \"#utility.yul\":1970:1973   */\n      dup3\n        /* \"#utility.yul\":1963:1982   */\n      mstore\n        /* \"#utility.yul\":2015:2019   */\n      0x20\n        /* \"#utility.yul\":2010:2013   */\n      dup3\n        /* \"#utility.yul\":2006:2020   */\n      add\n        /* \"#utility.yul\":1991:2020   */\n      swap1\n      pop\n        /* \"#utility.yul\":1857:2026   */\n      swap3\n      swap2\n      pop\n      pop\n      jump\t// out\n        /* \"#utility.yul\":2032:2200   */\n    tag_50:\n        /* \"#utility.yul\":2172:2192   */\n      0x782063616e6e6f7420626520207a65726f210000000000000000000000000000\n        /* \"#utility.yul\":2168:2169   */\n      0x00\n        /* \"#utility.yul\":2160:2166   */\n      dup3\n        /* \"#utility.yul\":2156:2170   */\n      add\n        /* \"#utility.yul\":2149:2193   */\n      mstore\n        /* \"#utility.yul\":2032:2200   */\n      pop\n      jump\t// out\n        /* \"#utility.yul\":2206:2572   */\n    tag_51:\n        /* \"#utility.yul\":2348:2351   */\n      0x00\n        /* \"#utility.yul\":2369:2436   */\n      tag_82\n        /* \"#utility.yul\":2433:2435   */\n      0x12\n        /* \"#utility.yul\":2428:2431   */\n      dup4\n        /* \"#utility.yul\":2369:2436   */\n      tag_49\n      jump\t// in\n    tag_82:\n        /* \"#utility.yul\":2362:2436   */\n      swap2\n      pop\n        /* \"#utility.yul\":2445:2538   */\n      tag_83\n        /* \"#utility.yul\":2534:2537   */\n      dup3\n        /* \"#utility.yul\":2445:2538   */\n      tag_50\n      jump\t// in\n    tag_83:\n        /* \"#utility.yul\":2563:2565   */\n      0x20\n        /* \"#utility.yul\":2558:2561   */\n      dup3\n        /* \"#utility.yul\":2554:2566   */\n      add\n        /* \"#utility.yul\":2547:2566   */\n      swap1\n      pop\n        /* \"#utility.yul\":2206:2572   */\n      swap2\n      swap1\n      pop\n      jump\t// out\n        /* \"#utility.yul\":2578:2997   */\n    tag_27:\n        /* \"#utility.yul\":2744:2748   */\n      0x00\n        /* \"#utility.yul\":2782:2784   */\n      0x20\n        /* \"#utility.yul\":2771:2780   */\n      dup3\n        /* \"#utility.yul\":2767:2785   */\n      add\n        /* \"#utility.yul\":2759:2785   */\n      swap1\n      pop\n        /* \"#utility.yul\":2831:2840   */\n      dup2\n        /* \"#utility.yul\":2825:2829   */\n      dup2\n        /* \"#utility.yul\":2821:2841   */\n      sub\n        /* \"#utility.yul\":2817:2818   */\n      0x00\n        /* \"#utility.yul\":2806:2815   */\n      dup4\n        /* \"#utility.yul\":2802:2819   */\n      add\n        /* \"#utility.yul\":2795:2842   */\n      mstore\n        /* \"#utility.yul\":2859:2990   */\n      tag_85\n        /* \"#utility.yul\":2985:2989   */\n      dup2\n        /* \"#utility.yul\":2859:2990   */\n      tag_51\n      jump\t// in\n    tag_85:\n        /* \"#utility.yul\":2851:2990   */\n      swap1\n      pop\n        /* \"#utility.yul\":2578:2997   */\n      swap2\n      swap1\n      pop\n      jump\t// out\n        /* \"#utility.yul\":3003:3183   */\n    tag_52:\n        /* \"#utility.yul\":3051:3128   */\n      0x4e487b7100000000000000000000000000000000000000000000000000000000\n        /* \"#utility.yul\":3048:3049   */\n      0x00\n        /* \"#utility.yul\":3041:3129   */\n      mstore\n        /* \"#utility.yul\":3148:3152   */\n      0x11\n        /* \"#utility.yul\":3145:3146   */\n      0x04\n        /* \"#utility.yul\":3138:3153   */\n      mstore\n        /* \"#utility.yul\":3172:3176   */\n      0x24\n        /* \"#utility.yul\":3169:3170   */\n      0x00\n        /* \"#utility.yul\":3162:3177   */\n      revert\n        /* \"#utility.yul\":3189:3380   */\n    tag_31:\n        /* \"#utility.yul\":3229:3232   */\n      0x00\n        /* \"#utility.yul\":3248:3268   */\n      tag_88\n        /* \"#utility.yul\":3266:3267   */\n      dup3\n        /* \"#utility.yul\":3248:3268   */\n      tag_45\n      jump\t// in\n    tag_88:\n        /* \"#utility.yul\":3243:3268   */\n      swap2\n      pop\n        /* \"#utility.yul\":3282:3302   */\n      tag_89\n        /* \"#utility.yul\":3300:3301   */\n      dup4\n        /* \"#utility.yul\":3282:3302   */\n      tag_45\n      jump\t// in\n    tag_89:\n        /* \"#utility.yul\":3277:3302   */\n      swap3\n      pop\n        /* \"#utility.yul\":3325:3326   */\n      dup3\n        /* \"#utility.yul\":3322:3323   */\n      dup3\n        /* \"#utility.yul\":3318:3327   */\n      add\n        /* \"#utility.yul\":3311:3327   */\n      swap1\n      pop\n        /* \"#utility.yul\":3346:3349   */\n      dup1\n        /* \"#utility.yul\":3343:3344   */\n      dup3\n        /* \"#utility.yul\":3340:3350   */\n      gt\n        /* \"#utility.yul\":3337:3373   */\n      iszero\n      tag_90\n      jumpi\n        /* \"#utility.yul\":3353:3371   */\n      tag_91\n      tag_52\n      jump\t// in\n    tag_91:\n        /* \"#utility.yul\":3337:3373   */\n    tag_90:\n        /* \"#utility.yul\":3189:3380   */\n      swap3\n      swap2\n      pop\n      pop\n      jump\t// out\n        /* \"#utility.yul\":3386:3553   */\n    tag_53:\n        /* \"#utility.yul\":3526:3545   */\n      0x726573756c74206f766572666c6f776564000000000000000000000000000000\n        /* \"#utility.yul\":3522:3523   */\n      0x00\n        /* \"#utility.yul\":3514:3520   */\n      dup3\n        /* \"#utility.yul\":3510:3524   */\n      add\n        /* \"#utility.yul\":3503:3546   */\n      mstore\n        /* \"#utility.yul\":3386:3553   */\n      pop\n      jump\t// out\n        /* \"#utility.yul\":3559:3925   */\n    tag_54:\n        /* \"#utility.yul\":3701:3704   */\n      0x00\n        /* \"#utility.yul\":3722:3789   */\n      tag_94\n        /* \"#utility.yul\":3786:3788   */\n      0x11\n        /* \"#utility.yul\":3781:3784   */\n      dup4\n        /* \"#utility.yul\":3722:3789   */\n      tag_49\n      jump\t// in\n    tag_94:\n        /* \"#utility.yul\":3715:3789   */\n      swap2\n      pop\n        /* \"#utility.yul\":3798:3891   */\n      tag_95\n        /* \"#utility.yul\":3887:3890   */\n      dup3\n        /* \"#utility.yul\":3798:3891   */\n      tag_53\n      jump\t// in\n    tag_95:\n        /* \"#utility.yul\":3916:3918   */\n      0x20\n        /* \"#utility.yul\":3911:3914   */\n      dup3\n        /* \"#utility.yul\":3907:3919   */\n      add\n        /* \"#utility.yul\":3900:3919   */\n      swap1\n      pop\n        /* \"#utility.yul\":3559:3925   */\n      swap2\n      swap1\n      pop\n      jump\t// out\n        /* \"#utility.yul\":3931:4350   */\n    tag_35:\n        /* \"#utility.yul\":4097:4101   */\n      0x00\n        /* \"#utility.yul\":4135:4137   */\n      0x20\n        /* \"#utility.yul\":4124:4133   */\n      dup3\n        /* \"#utility.yul\":4120:4138   */\n      add\n        /* \"#utility.yul\":4112:4138   */\n      swap1\n      pop\n        /* \"#utility.yul\":4184:4193   */\n      dup2\n        /* \"#utility.yul\":4178:4182   */\n      dup2\n        /* \"#utility.yul\":4174:4194   */\n      sub\n        /* \"#utility.yul\":4170:4171   */\n      0x00\n        /* \"#utility.yul\":4159:4168   */\n      dup4\n        /* \"#utility.yul\":4155:4172   */\n      add\n        /* \"#utility.yul\":4148:4195   */\n      mstore\n        /* \"#utility.yul\":4212:4343   */\n      tag_97\n        /* \"#utility.yul\":4338:4342   */\n      dup2\n        /* \"#utility.yul\":4212:4343   */\n      tag_54\n      jump\t// in\n    tag_97:\n        /* \"#utility.yul\":4204:4343   */\n      swap1\n      pop\n        /* \"#utility.yul\":3931:4350   */\n      swap2\n      swap1\n      pop\n      jump\t// out\n        /* \"#utility.yul\":4356:4536   */\n    tag_39:\n        /* \"#utility.yul\":4404:4481   */\n      0x4e487b7100000000000000000000000000000000000000000000000000000000\n        /* \"#utility.yul\":4401:4402   */\n      0x00\n        /* \"#utility.yul\":4394:4482   */\n      mstore\n        /* \"#utility.yul\":4501:4505   */\n      0x01\n        /* \"#utility.yul\":4498:4499   */\n      0x04\n        /* \"#utility.yul\":4491:4506   */\n      mstore\n        /* \"#utility.yul\":4525:4529   */\n      0x24\n        /* \"#utility.yul\":4522:4523   */\n      0x00\n        /* \"#utility.yul\":4515:4530   */\n      revert\n        /* \"#utility.yul\":4542:4722   */\n    tag_55:\n        /* \"#utility.yul\":4590:4667   */\n      0x4e487b7100000000000000000000000000000000000000000000000000000000\n        /* \"#utility.yul\":4587:4588   */\n      0x00\n        /* \"#utility.yul\":4580:4668   */\n      mstore\n        /* \"#utility.yul\":4687:4691   */\n      0x12\n        /* \"#utility.yul\":4684:4685   */\n      0x04\n        /* \"#utility.yul\":4677:4692   */\n      mstore\n        /* \"#utility.yul\":4711:4715   */\n      0x24\n        /* \"#utility.yul\":4708:4709   */\n      0x00\n        /* \"#utility.yul\":4701:4716   */\n      revert\n        /* \"#utility.yul\":4728:4913   */\n    tag_41:\n        /* \"#utility.yul\":4768:4769   */\n      0x00\n        /* \"#utility.yul\":4785:4805   */\n      tag_101\n        /* \"#utility.yul\":4803:4804   */\n      dup3\n        /* \"#utility.yul\":4785:4805   */\n      tag_45\n      jump\t// in\n    tag_101:\n        /* \"#utility.yul\":4780:4805   */\n      swap2\n      pop\n        /* \"#utility.yul\":4819:4839   */\n      tag_102\n        /* \"#utility.yul\":4837:4838   */\n      dup4\n        /* \"#utility.yul\":4819:4839   */\n      tag_45\n      jump\t// in\n    tag_102:\n        /* \"#utility.yul\":4814:4839   */\n      swap3\n      pop\n        /* \"#utility.yul\":4858:4859   */\n      dup3\n        /* \"#utility.yul\":4848:4883   */\n      tag_103\n      jumpi\n        /* \"#utility.yul\":4863:4881   */\n      tag_104\n      tag_55\n      jump\t// in\n    tag_104:\n        /* \"#utility.yul\":4848:4883   */\n    tag_103:\n        /* \"#utility.yul\":4905:4906   */\n      dup3\n        /* \"#utility.yul\":4902:4903   */\n      dup3\n        /* \"#utility.yul\":4898:4907   */\n      div\n        /* \"#utility.yul\":4893:4907   */\n      swap1\n      pop\n        /* \"#utility.yul\":4728:4913   */\n      swap3\n      swap2\n      pop\n      pop\n      jump\t// out\n\n    auxdata: 0xa264697066735822122008a4dd03399754e51e0dae321ab7f800d58d5f0c51ea3575d478c5838178ea1764736f6c63430008110033\n}\n",
				"bytecode": {
					"linkReferences": {},
					"object": "608060405234801561001057600080fd5b506104b2806100206000396000f3fe608060405234801561001057600080fd5b506004361061004c5760003560e01c806360fe47b1146100515780636d4ce63c1461006d578063771602f71461008b578063f88e9fbf146100bb575b600080fd5b61006b6004803603810190610066919061020a565b6100eb565b005b610075610138565b6040516100829190610246565b60405180910390f35b6100a560048036038101906100a09190610261565b610141565b6040516100b29190610246565b60405180910390f35b6100d560048036038101906100d09190610261565b6101a9565b6040516100e29190610246565b60405180910390f35b6000810361012e576040517f08c379a0000000000000000000000000000000000000000000000000000000008152600401610125906102fe565b60405180910390fd5b8060008190555050565b60008054905090565b6000808284610150919061034d565b90508381108061015f57508281105b1561019f576040517f08c379a0000000000000000000000000000000000000000000000000000000008152600401610196906103cd565b60405180910390fd5b8091505092915050565b60008082036101bb576101ba6103ed565b5b81836101c7919061044b565b905092915050565b600080fd5b6000819050919050565b6101e7816101d4565b81146101f257600080fd5b50565b600081359050610204816101de565b92915050565b6000602082840312156102205761021f6101cf565b5b600061022e848285016101f5565b91505092915050565b610240816101d4565b82525050565b600060208201905061025b6000830184610237565b92915050565b60008060408385031215610278576102776101cf565b5b6000610286858286016101f5565b9250506020610297858286016101f5565b9150509250929050565b600082825260208201905092915050565b7f782063616e6e6f7420626520207a65726f210000000000000000000000000000600082015250565b60006102e86012836102a1565b91506102f3826102b2565b602082019050919050565b60006020820190508181036000830152610317816102db565b9050919050565b7f4e487b7100000000000000000000000000000000000000000000000000000000600052601160045260246000fd5b6000610358826101d4565b9150610363836101d4565b925082820190508082111561037b5761037a61031e565b5b92915050565b7f726573756c74206f766572666c6f776564000000000000000000000000000000600082015250565b60006103b76011836102a1565b91506103c282610381565b602082019050919050565b600060208201905081810360008301526103e6816103aa565b9050919050565b7f4e487b7100000000000000000000000000000000000000000000000000000000600052600160045260246000fd5b7f4e487b7100000000000000000000000000000000000000000000000000000000600052601260045260246000fd5b6000610456826101d4565b9150610461836101d4565b9250826104715761047061041c565b5b82820490509291505056fea264697066735822122008a4dd03399754e51e0dae321ab7f800d58d5f0c51ea3575d478c5838178ea1764736f6c63430008110033",
					"opcodes": "PUSH1 0x80 PUSH1 0x40 MSTORE CALLVALUE DUP1 ISZERO PUSH2 0x10 JUMPI PUSH1 0x0 DUP1 REVERT JUMPDEST POP PUSH2 0x4B2 DUP1 PUSH2 0x20 PUSH1 0x0 CODECOPY PUSH1 0x0 RETURN INVALID PUSH1 0x80 PUSH1 0x40 MSTORE CALLVALUE DUP1 ISZERO PUSH2 0x10 JUMPI PUSH1 0x0 DUP1 REVERT JUMPDEST POP PUSH1 0x4 CALLDATASIZE LT PUSH2 0x4C JUMPI PUSH1 0x0 CALLDATALOAD PUSH1 0xE0 SHR DUP1 PUSH4 0x60FE47B1 EQ PUSH2 0x51 JUMPI DUP1 PUSH4 0x6D4CE63C EQ PUSH2 0x6D JUMPI DUP1 PUSH4 0x771602F7 EQ PUSH2 0x8B JUMPI DUP1 PUSH4 0xF88E9FBF EQ PUSH2 0xBB JUMPI JUMPDEST PUSH1 0x0 DUP1 REVERT JUMPDEST PUSH2 0x6B PUSH1 0x4 DUP1 CALLDATASIZE SUB DUP2 ADD SWAP1 PUSH2 0x66 SWAP2 SWAP1 PUSH2 0x20A JUMP JUMPDEST PUSH2 0xEB JUMP JUMPDEST STOP JUMPDEST PUSH2 0x75 PUSH2 0x138 JUMP JUMPDEST PUSH1 0x40 MLOAD PUSH2 0x82 SWAP2 SWAP1 PUSH2 0x246 JUMP JUMPDEST PUSH1 0x40 MLOAD DUP1 SWAP2 SUB SWAP1 RETURN JUMPDEST PUSH2 0xA5 PUSH1 0x4 DUP1 CALLDATASIZE SUB DUP2 ADD SWAP1 PUSH2 0xA0 SWAP2 SWAP1 PUSH2 0x261 JUMP JUMPDEST PUSH2 0x141 JUMP JUMPDEST PUSH1 0x40 MLOAD PUSH2 0xB2 SWAP2 SWAP1 PUSH2 0x246 JUMP JUMPDEST PUSH1 0x40 MLOAD DUP1 SWAP2 SUB SWAP1 RETURN JUMPDEST PUSH2 0xD5 PUSH1 0x4 DUP1 CALLDATASIZE SUB DUP2 ADD SWAP1 PUSH2 0xD0 SWAP2 SWAP1 PUSH2 0x261 JUMP JUMPDEST PUSH2 0x1A9 JUMP JUMPDEST PUSH1 0x40 MLOAD PUSH2 0xE2 SWAP2 SWAP1 PUSH2 0x246 JUMP JUMPDEST PUSH1 0x40 MLOAD DUP1 SWAP2 SUB SWAP1 RETURN JUMPDEST PUSH1 0x0 DUP2 SUB PUSH2 0x12E JUMPI PUSH1 0x40 MLOAD PUSH32 0x8C379A000000000000000000000000000000000000000000000000000000000 DUP2 MSTORE PUSH1 0x4 ADD PUSH2 0x125 SWAP1 PUSH2 0x2FE JUMP JUMPDEST PUSH1 0x40 MLOAD DUP1 SWAP2 SUB SWAP1 REVERT JUMPDEST DUP1 PUSH1 0x0 DUP2 SWAP1 SSTORE POP POP JUMP JUMPDEST PUSH1 0x0 DUP1 SLOAD SWAP1 POP SWAP1 JUMP JUMPDEST PUSH1 0x0 DUP1 DUP3 DUP5 PUSH2 0x150 SWAP2 SWAP1 PUSH2 0x34D JUMP JUMPDEST SWAP1 POP DUP4 DUP2 LT DUP1 PUSH2 0x15F JUMPI POP DUP3 DUP2 LT JUMPDEST ISZERO PUSH2 0x19F JUMPI PUSH1 0x40 MLOAD PUSH32 0x8C379A000000000000000000000000000000000000000000000000000000000 DUP2 MSTORE PUSH1 0x4 ADD PUSH2 0x196 SWAP1 PUSH2 0x3CD JUMP JUMPDEST PUSH1 0x40 MLOAD DUP1 SWAP2 SUB SWAP1 REVERT JUMPDEST DUP1 SWAP2 POP POP SWAP3 SWAP2 POP POP JUMP JUMPDEST PUSH1 0x0 DUP1 DUP3 SUB PUSH2 0x1BB JUMPI PUSH2 0x1BA PUSH2 0x3ED JUMP JUMPDEST JUMPDEST DUP2 DUP4 PUSH2 0x1C7 SWAP2 SWAP1 PUSH2 0x44B JUMP JUMPDEST SWAP1 POP SWAP3 SWAP2 POP POP JUMP JUMPDEST PUSH1 0x0 DUP1 REVERT JUMPDEST PUSH1 0x0 DUP2 SWAP1 POP SWAP2 SWAP1 POP JUMP JUMPDEST PUSH2 0x1E7 DUP2 PUSH2 0x1D4 JUMP JUMPDEST DUP2 EQ PUSH2 0x1F2 JUMPI PUSH1 0x0 DUP1 REVERT JUMPDEST POP JUMP JUMPDEST PUSH1 0x0 DUP2 CALLDATALOAD SWAP1 POP PUSH2 0x204 DUP2 PUSH2 0x1DE JUMP JUMPDEST SWAP3 SWAP2 POP POP JUMP JUMPDEST PUSH1 0x0 PUSH1 0x20 DUP3 DUP5 SUB SLT ISZERO PUSH2 0x220 JUMPI PUSH2 0x21F PUSH2 0x1CF JUMP JUMPDEST JUMPDEST PUSH1 0x0 PUSH2 0x22E DUP5 DUP3 DUP6 ADD PUSH2 0x1F5 JUMP JUMPDEST SWAP2 POP POP SWAP3 SWAP2 POP POP JUMP JUMPDEST PUSH2 0x240 DUP2 PUSH2 0x1D4 JUMP JUMPDEST DUP3 MSTORE POP POP JUMP JUMPDEST PUSH1 0x0 PUSH1 0x20 DUP3 ADD SWAP1 POP PUSH2 0x25B PUSH1 0x0 DUP4 ADD DUP5 PUSH2 0x237 JUMP JUMPDEST SWAP3 SWAP2 POP POP JUMP JUMPDEST PUSH1 0x0 DUP1 PUSH1 0x40 DUP4 DUP6 SUB SLT ISZERO PUSH2 0x278 JUMPI PUSH2 0x277 PUSH2 0x1CF JUMP JUMPDEST JUMPDEST PUSH1 0x0 PUSH2 0x286 DUP6 DUP3 DUP7 ADD PUSH2 0x1F5 JUMP JUMPDEST SWAP3 POP POP PUSH1 0x20 PUSH2 0x297 DUP6 DUP3 DUP7 ADD PUSH2 0x1F5 JUMP JUMPDEST SWAP2 POP POP SWAP3 POP SWAP3 SWAP1 POP JUMP JUMPDEST PUSH1 0x0 DUP3 DUP3 MSTORE PUSH1 0x20 DUP3 ADD SWAP1 POP SWAP3 SWAP2 POP POP JUMP JUMPDEST PUSH32 0x782063616E6E6F7420626520207A65726F210000000000000000000000000000 PUSH1 0x0 DUP3 ADD MSTORE POP JUMP JUMPDEST PUSH1 0x0 PUSH2 0x2E8 PUSH1 0x12 DUP4 PUSH2 0x2A1 JUMP JUMPDEST SWAP2 POP PUSH2 0x2F3 DUP3 PUSH2 0x2B2 JUMP JUMPDEST PUSH1 0x20 DUP3 ADD SWAP1 POP SWAP2 SWAP1 POP JUMP JUMPDEST PUSH1 0x0 PUSH1 0x20 DUP3 ADD SWAP1 POP DUP2 DUP2 SUB PUSH1 0x0 DUP4 ADD MSTORE PUSH2 0x317 DUP2 PUSH2 0x2DB JUMP JUMPDEST SWAP1 POP SWAP2 SWAP1 POP JUMP JUMPDEST PUSH32 0x4E487B7100000000000000000000000000000000000000000000000000000000 PUSH1 0x0 MSTORE PUSH1 0x11 PUSH1 0x4 MSTORE PUSH1 0x24 PUSH1 0x0 REVERT JUMPDEST PUSH1 0x0 PUSH2 0x358 DUP3 PUSH2 0x1D4 JUMP JUMPDEST SWAP2 POP PUSH2 0x363 DUP4 PUSH2 0x1D4 JUMP JUMPDEST SWAP3 POP DUP3 DUP3 ADD SWAP1 POP DUP1 DUP3 GT ISZERO PUSH2 0x37B JUMPI PUSH2 0x37A PUSH2 0x31E JUMP JUMPDEST JUMPDEST SWAP3 SWAP2 POP POP JUMP JUMPDEST PUSH32 0x726573756C74206F766572666C6F776564000000000000000000000000000000 PUSH1 0x0 DUP3 ADD MSTORE POP JUMP JUMPDEST PUSH1 0x0 PUSH2 0x3B7 PUSH1 0x11 DUP4 PUSH2 0x2A1 JUMP JUMPDEST SWAP2 POP PUSH2 0x3C2 DUP3 PUSH2 0x381 JUMP JUMPDEST PUSH1 0x20 DUP3 ADD SWAP1 POP SWAP2 SWAP1 POP JUMP JUMPDEST PUSH1 0x0 PUSH1 0x20 DUP3 ADD SWAP1 POP DUP2 DUP2 SUB PUSH1 0x0 DUP4 ADD MSTORE PUSH2 0x3E6 DUP2 PUSH2 0x3AA JUMP JUMPDEST SWAP1 POP SWAP2 SWAP1 POP JUMP JUMPDEST PUSH32 0x4E487B7100000000000000000000000000000000000000000000000000000000 PUSH1 0x0 MSTORE PUSH1 0x1 PUSH1 0x4 MSTORE PUSH1 0x24 PUSH1 0x0 REVERT JUMPDEST PUSH32 0x4E487B7100000000000000000000000000000000000000000000000000000000 PUSH1 0x0 MSTORE PUSH1 0x12 PUSH1 0x4 MSTORE PUSH1 0x24 PUSH1 0x0 REVERT JUMPDEST PUSH1 0x0 PUSH2 0x456 DUP3 PUSH2 0x1D4 JUMP JUMPDEST SWAP2 POP PUSH2 0x461 DUP4 PUSH2 0x1D4 JUMP JUMPDEST SWAP3 POP DUP3 PUSH2 0x471 JUMPI PUSH2 0x470 PUSH2 0x41C JUMP JUMPDEST JUMPDEST DUP3 DUP3 DIV SWAP1 POP SWAP3 SWAP2 POP POP JUMP INVALID LOG2 PUSH5 0x6970667358 0x22 SLT KECCAK256 ADDMOD LOG4 0xDD SUB CODECOPY SWAP8 SLOAD 0xE5 0x1E 0xD 0xAE ORIGIN BYTE 0xB7 0xF8 STOP 0xD5 DUP14 0x5F 0xC MLOAD 0xEA CALLDATALOAD PUSH22 0xD478C5838178EA1764736F6C63430008110033000000 "
				},
				"gasEstimates": {
					"creation": {
						"codeDepositCost": "240400",
						"executionCost": "281",
						"totalCost": "240681"
					},
					"external": {
						"add(uint256,uint256)": "infinite",
						"divide(uint256,uint256)": "infinite",
						"get()": "2437",
						"set(uint256)": "22521"
					}
				},
				"methodIdentifiers": {
					"add(uint256,uint256)": "771602f7",
					"divide(uint256,uint256)": "f88e9fbf",
					"get()": "6d4ce63c",
					"set(uint256)": "60fe47b1"
				}
			},
			"storageLayout": {
				"storage": [
					{
						"astId": 3,
						"contract": "contracts/Errors.sol:Errors",
						"label": "storedData",
						"offset": 0,
						"slot": "0",
						"type": "t_uint256"
					}
				],
				"types": {
					"t_uint256": {
						"encoding": "inplace",
						"label": "uint256",
						"numberOfBytes": "32"
					}
				}
			},
			"userdoc": {
				"kind": "user",
				"methods": {},
				"version": 1
			}
		}
	}
}