{
	"data": {
		"bytecode": {
			"linkReferences": {},
			"object": "608060405234801561001057600080fd5b5061035a806100206000396000f3fe608060405234801561001057600080fd5b50600436106100415760003560e01c8063456901e4146100465780635a5e80e714610076578063950b9954146100a6575b600080fd5b610060600480360381019061005b91906101c5565b6100d6565b60405161006d9190610201565b60405180910390f35b610090600480360381019061008b91906101c5565b61011c565b60405161009d9190610201565b60405180910390f35b6100c060048036038101906100bb91906101c5565b610156565b6040516100cd9190610201565b60405180910390f35b6000806000905060005b600a8110156101125780826100f5919061024b565b91508084031561011257808061010a9061027f565b9150506100e0565b5080915050919050565b600080600090505b6000831461014d5780806101379061027f565b9150508280610145906102c7565b935050610124565b80915050919050565b6000600a8211156101755760018261016e919061024b565b9050610185565b60018261018291906102f0565b90505b919050565b600080fd5b6000819050919050565b6101a28161018f565b81146101ad57600080fd5b50565b6000813590506101bf81610199565b92915050565b6000602082840312156101db576101da61018a565b5b60006101e9848285016101b0565b91505092915050565b6101fb8161018f565b82525050565b600060208201905061021660008301846101f2565b92915050565b7f4e487b7100000000000000000000000000000000000000000000000000000000600052601160045260246000fd5b60006102568261018f565b91506102618361018f565b92508282019050808211156102795761027861021c565b5b92915050565b600061028a8261018f565b91507fffffffffffffffffffffffffffffffffffffffffffffffffffffffffffffffff82036102bc576102bb61021c565b5b600182019050919050565b60006102d28261018f565b9150600082036102e5576102e461021c565b5b600182039050919050565b60006102fb8261018f565b91506103068361018f565b925082820390508181111561031e5761031d61021c565b5b9291505056fea2646970667358221220e3d8558c356577c8762d4df022c10947a7274c20ea02e3fa38db24240e80c66664736f6c63430008120033",
			"opcodes": "PUSH1 0x80 PUSH1 0x40 MSTORE CALLVALUE DUP1 ISZERO PUSH2 0x10 JUMPI PUSH1 0x0 DUP1 REVERT JUMPDEST POP PUSH2 0x35A DUP1 PUSH2 0x20 PUSH1 0x0 CODECOPY PUSH1 0x0 RETURN INVALID PUSH1 0x80 PUSH1 0x40 MSTORE CALLVALUE DUP1 ISZERO PUSH2 0x10 JUMPI PUSH1 0x0 DUP1 REVERT JUMPDEST POP PUSH1 0x4 CALLDATASIZE LT PUSH2 0x41 JUMPI PUSH1 0x0 CALLDATALOAD PUSH1 0xE0 SHR DUP1 PUSH4 0x456901E4 EQ PUSH2 0x46 JUMPI DUP1 PUSH4 0x5A5E80E7 EQ PUSH2 0x76 JUMPI DUP1 PUSH4 0x950B9954 EQ PUSH2 0xA6 JUMPI JUMPDEST PUSH1 0x0 DUP1 REVERT JUMPDEST PUSH2 0x60 PUSH1 0x4 DUP1 CALLDATASIZE SUB DUP2 ADD SWAP1 PUSH2 0x5B SWAP2 SWAP1 PUSH2 0x1C5 JUMP JUMPDEST PUSH2 0xD6 JUMP JUMPDEST PUSH1 0x40 MLOAD PUSH2 0x6D SWAP2 SWAP1 PUSH2 0x201 JUMP JUMPDEST PUSH1 0x40 MLOAD DUP1 SWAP2 SUB SWAP1 RETURN JUMPDEST PUSH2 0x90 PUSH1 0x4 DUP1 CALLDATASIZE SUB DUP2 ADD SWAP1 PUSH2 0x8B SWAP2 SWAP1 PUSH2 0x1C5 JUMP JUMPDEST PUSH2 0x11C JUMP JUMPDEST PUSH1 0x40 MLOAD PUSH2 0x9D SWAP2 SWAP1 PUSH2 0x201 JUMP JUMPDEST PUSH1 0x40 MLOAD DUP1 SWAP2 SUB SWAP1 RETURN JUMPDEST PUSH2 0xC0 PUSH1 0x4 DUP1 CALLDATASIZE SUB DUP2 ADD SWAP1 PUSH2 0xBB SWAP2 SWAP1 PUSH2 0x1C5 JUMP JUMPDEST PUSH2 0x156 JUMP JUMPDEST PUSH1 0x40 MLOAD PUSH2 0xCD SWAP2 SWAP1 PUSH2 0x201 JUMP JUMPDEST PUSH1 0x40 MLOAD DUP1 SWAP2 SUB SWAP1 RETURN JUMPDEST PUSH1 0x0 DUP1 PUSH1 0x0 SWAP1 POP PUSH1 0x0 JUMPDEST PUSH1 0xA DUP2 LT ISZERO PUSH2 0x112 JUMPI DUP1 DUP3 PUSH2 0xF5 SWAP2 SWAP1 PUSH2 0x24B JUMP JUMPDEST SWAP2 POP DUP1 DUP5 SUB ISZERO PUSH2 0x112 JUMPI DUP1 DUP1 PUSH2 0x10A SWAP1 PUSH2 0x27F JUMP JUMPDEST SWAP2 POP POP PUSH2 0xE0 JUMP JUMPDEST POP DUP1 SWAP2 POP POP SWAP2 SWAP1 POP JUMP JUMPDEST PUSH1 0x0 DUP1 PUSH1 0x0 SWAP1 POP JUMPDEST PUSH1 0x0 DUP4 EQ PUSH2 0x14D JUMPI DUP1 DUP1 PUSH2 0x137 SWAP1 PUSH2 0x27F JUMP JUMPDEST SWAP2 POP POP DUP3 DUP1 PUSH2 0x145 SWAP1 PUSH2 0x2C7 JUMP JUMPDEST SWAP4 POP POP PUSH2 0x124 JUMP JUMPDEST DUP1 SWAP2 POP POP SWAP2 SWAP1 POP JUMP JUMPDEST PUSH1 0x0 PUSH1 0xA DUP3 GT ISZERO PUSH2 0x175 JUMPI PUSH1 0x1 DUP3 PUSH2 0x16E SWAP2 SWAP1 PUSH2 0x24B JUMP JUMPDEST SWAP1 POP PUSH2 0x185 JUMP JUMPDEST PUSH1 0x1 DUP3 PUSH2 0x182 SWAP2 SWAP1 PUSH2 0x2F0 JUMP JUMPDEST SWAP1 POP JUMPDEST SWAP2 SWAP1 POP JUMP JUMPDEST PUSH1 0x0 DUP1 REVERT JUMPDEST PUSH1 0x0 DUP2 SWAP1 POP SWAP2 SWAP1 POP JUMP JUMPDEST PUSH2 0x1A2 DUP2 PUSH2 0x18F JUMP JUMPDEST DUP2 EQ PUSH2 0x1AD JUMPI PUSH1 0x0 DUP1 REVERT JUMPDEST POP JUMP JUMPDEST PUSH1 0x0 DUP2 CALLDATALOAD SWAP1 POP PUSH2 0x1BF DUP2 PUSH2 0x199 JUMP JUMPDEST SWAP3 SWAP2 POP POP JUMP JUMPDEST PUSH1 0x0 PUSH1 0x20 DUP3 DUP5 SUB SLT ISZERO PUSH2 0x1DB JUMPI PUSH2 0x1DA PUSH2 0x18A JUMP JUMPDEST JUMPDEST PUSH1 0x0 PUSH2 0x1E9 DUP5 DUP3 DUP6 ADD PUSH2 0x1B0 JUMP JUMPDEST SWAP2 POP POP SWAP3 SWAP2 POP POP JUMP JUMPDEST PUSH2 0x1FB DUP2 PUSH2 0x18F JUMP JUMPDEST DUP3 MSTORE POP POP JUMP JUMPDEST PUSH1 0x0 PUSH1 0x20 DUP3 ADD SWAP1 POP PUSH2 0x216 PUSH1 0x0 DUP4 ADD DUP5 PUSH2 0x1F2 JUMP JUMPDEST SWAP3 SWAP2 POP POP JUMP JUMPDEST PUSH32 0x4E487B7100000000000000000000000000000000000000000000000000000000 PUSH1 0x0 MSTORE PUSH1 0x11 PUSH1 0x4 MSTORE PUSH1 0x24 PUSH1 0x0 REVERT JUMPDEST PUSH1 0x0 PUSH2 0x256 DUP3 PUSH2 0x18F JUMP JUMPDEST SWAP2 POP PUSH2 0x261 DUP4 PUSH2 0x18F JUMP JUMPDEST SWAP3 POP DUP3 DUP3 ADD SWAP1 POP DUP1 DUP3 GT ISZERO PUSH2 0x279 JUMPI PUSH2 0x278 PUSH2 0x21C JUMP JUMPDEST JUMPDEST SWAP3 SWAP2 POP POP JUMP JUMPDEST PUSH1 0x0 PUSH2 0x28A DUP3 PUSH2 0x18F JUMP JUMPDEST SWAP2 POP PUSH32 0xFFFFFFFFFFFFFFFFFFFFFFFFFFFFFFFFFFFFFFFFFFFFFFFFFFFFFFFFFFFFFFFF DUP3 SUB PUSH2 0x2BC JUMPI PUSH2 0x2BB PUSH2 0x21C JUMP JUMPDEST JUMPDEST PUSH1 0x1 DUP3 ADD SWAP1 POP SWAP2 SWAP1 POP JUMP JUMPDEST PUSH1 0x0 PUSH2 0x2D2 DUP3 PUSH2 0x18F JUMP JUMPDEST SWAP2 POP PUSH1 0x0 DUP3 SUB PUSH2 0x2E5 JUMPI PUSH2 0x2E4 PUSH2 0x21C JUMP JUMPDEST JUMPDEST PUSH1 0x1 DUP3 SUB SWAP1 POP SWAP2 SWAP1 POP JUMP JUMPDEST PUSH1 0x0 PUSH2 0x2FB DUP3 PUSH2 0x18F JUMP JUMPDEST SWAP2 POP PUSH2 0x306 DUP4 PUSH2 0x18F JUMP JUMPDEST SWAP3 POP DUP3 DUP3 SUB SWAP1 POP DUP2 DUP2 GT ISZERO PUSH2 0x31E JUMPI PUSH2 0x31D PUSH2 0x21C JUMP JUMPDEST JUMPDEST SWAP3 SWAP2 POP POP JUMP INVALID LOG2 PUSH5 0x6970667358 0x22 SLT KECCAK256 0xE3 0xD8 SSTORE DUP13 CALLDATALOAD PUSH6 0x77C8762D4DF0 0x22 0xC1 MULMOD SELFBALANCE 0xA7 0x27 0x4C KECCAK256 0xEA MUL 0xE3 STATICCALL CODESIZE 0xDB 0x24 0x24 0xE DUP1 0xC6 PUSH7 0x64736F6C634300 ADDMOD SLT STOP CALLER "
		},
		"gasEstimates": {
			"creation": {
				"codeDepositCost": "171600",
				"executionCost": "214",
				"totalCost": "171814"
			},
			"external": {
				"forLoop(uint256)": "infinite",
				"ifElse(uint256)": "infinite",
				"whileLoop(uint256)": "infinite"
			}
		},
		"methodIdentifiers": {
			"forLoop(uint256)": "456901e4",
			"ifElse(uint256)": "950b9954",
			"whileLoop(uint256)": "5a5e80e7"
		}
	},
	"abi": [
		{
			"inputs": [
				{
					"internalType": "uint256",
					"name": "stop",
					"type": "uint256"
				}
			],
			"name": "forLoop",
			"outputs": [
				{
					"internalType": "uint256",
					"name": "",
					"type": "uint256"
				}
			],
			"stateMutability": "pure",
			"type": "function"
		},
		{
			"inputs": [
				{
					"internalType": "uint256",
					"name": "x",
					"type": "uint256"
				}
			],
			"name": "ifElse",
			"outputs": [
				{
					"internalType": "uint256",
					"name": "",
					"type": "uint256"
				}
			],
			"stateMutability": "pure",
			"type": "function"
		},
		{
			"inputs": [
				{
					"internalType": "uint256",
					"name": "number",
					"type": "uint256"
				}
			],
			"name": "whileLoop",
			"outputs": [
				{
					"internalType": "uint256",
					"name": "",
					"type": "uint256"
				}
			],
			"stateMutability": "pure",
			"type": "function"
		}
	]
}